:020000040800F2
:1000000000000220890F0008C9050008CB05000880
:10001000CD050008CF050008D1050008000000004C
:10002000000000000000000000000000D3050008F0
:10003000D505000800000000D7050008D905000814
:10004000D90F0008D90F0008D90F0008D90F0008F0
:10005000D90F0008D90F0008D90F0008D90F0008E0
:10006000D90F0008D90F0008D90F0008D90F0008D0
:10007000D90F0008D90F0008D90F0008D90F0008C0
:10008000D90F0008D90F0008D90F0008D90F0008B0
:10009000D90F0008D90F0008D90F0008D90F0008A0
:1000A000D90F0008D90F0008D90F0008D90F000890
:1000B000D90F0008D90F0008D90F0008D90F000880
:1000C000D90F0008D90F0008D90F0008D90F000870
:1000D000D90F0008D90F0008D90F0008D90F000860
:1000E000D90F0008D90F0008D90F0008D90F000850
:1000F000D90F0008D90F0008D90F0008D90F000840
:10010000D90F0008D90F0008D90F0008D90F00082F
:10011000D90F0008D90F0008D90F0008D90F00081F
:10012000D90F0008D90F0008D90F0008D90F00080F
:10013000D90F0008D90F0008D90F0008D90F0008FF
:10014000D90F0008D90F0008D90F0008D90F0008EF
:10015000D90F0008D90F0008D90F0008D90F0008DF
:10016000D90F0008D90F0008D90F0008D90F0008CF
:10017000D90F0008D90F0008D90F000800000000AF
:04018000D90F00088B
:1001840010B5054C237833B9044B13B10448AFF3CD
:1001940000800123237010BD0C000020000000002B
:1001A4003410000808B5034B1BB103490348AFF3EF
:1001B400008008BD0000000010000020341000087A
:1001C40053B94AB9002908BF00281CBF4FF0FF31BA
:1001D4004FF0FF3000F074B9ADF1080C6DE904CEB6
:1001E40000F006F8DDF804E0DDE9022304B070470E
:1001F4002DE9F0478C460446089E002B4BD18A42D9
:10020400154667D9B2FA82F24AB1C2F1200701FA5F
:1002140002F320FA07F7954047EA030C94404FEAAB
:10022400154EBCFBFEF71FFA85F80EFB17C307FB40
:1002340008F9210C41EA0343994509D9EB1807F160
:10024400FF3180F01C81994540F21981023F2B4413
:10025400A3EB0903B3FBFEF00EFB103300FB08F124
:10026400A4B244EA0344A14209D92C1900F1FF3392
:1002740080F00781A14240F2048102382C4440EA14
:1002840007400027641A1EB10023D440C6E9004386
:100294003946BDE8F0878B4209D9002E00F0EC8086
:1002A4000027C6E9000138463946BDE8F087B3FAAD
:1002B40083F7002F48D18B4202D3824200F2FB80A5
:1002C400841A61EB030301209C46002EE0D0C6E9AA
:1002D400004CDDE702B9FFDEB2FA82F2002A40F0F8
:1002E4008F800127491B4FEA15481FFA85F9B1FB96
:1002F400F8FE08FB1E1109FB0EF04FEA144C4CEA01
:100304000143984207D9EB180EF1FF3102D298420B
:1003140000F2CD808E461B1AB3FBF8F008FB1033B5
:1003240009FB00F9A4B244EA0344A14507D92C19F6
:1003340000F1FF3302D2A14500F2B6801846A4EBC7
:10034400090440EA0E409EE7C7F12005BB4022FAAB
:1003540005FC4CEA030C21FA05F44FEA1C4EB4FBED
:10036400FEF91FFA8CF80EFB194420FA05F3B94084
:1003740009FB08FA19430B0C43EA0444A24502FAA8
:1003840007F200FA07F30BD91CEB040409F1FF3060
:1003940080F08880A24540F28580A9F10209644476
:1003A400A4EB0A04B4FBFEF00EFB104400FB08FAB5
:1003B40089B241EA0444A24508D91CEB040400F1C3
:1003C400FF316BD2A24569D90238644440EA09403E
:1003D400A0FB0289A4EB0A044C454146CE4654D303
:1003E40051D0002E69D05A1A64EB0E0404FA05F5B4
:1003F40022FA07F3FC401D43C6E90054002747E7EF
:100404009540C2F1200321FA03F04FEA1548B0FBEE
:10041400F8F71FFA85F908FB170024FA03F3914053
:1004240007FB09FC0B43190C41EA00418C4504FA13
:1004340002F407D9691807F1FF3031D28C452FD95E
:10044400023F2944A1EB0C01B1FBF8F008FB101C9E
:1004540000FB09FE99B241EA0C418E4507D969189F
:1004640000F1FF3318D28E4516D902382944A1EB86
:100474000E0140EA07473AE73746304608E70F4699
:10048400E6E61846FBE64345ABD2B8EB020169EB5E
:100494000C0201389646A4E71846E8E7084695E7B3
:1004A4000746CFE781467BE702382C4447E7AEF1A5
:1004B400020E2B442FE7384607E73746E8E600BF2D
:1004C400704700BF30B589B00024039404940594A8
:1004D400069407940194184B1A6B42F004021A63B1
:1004E4001A6B02F004020192019A02941A6B42F010
:1004F40002021A631B6B03F002030293029B0F4D6B
:10050400224644F28101284600F00DFD4FF40053C9
:1005140003930494059403A9094800F017FC44F2DA
:1005240081030393012304930594069403A92846A5
:1005340000F00CFC09B030BD003802400004024059
:100544000008024010B592B02C22002107A800F048
:1005540067FD0024019402940394049405940223F7
:1005640006930123099310230A9306A800F0A4F824
:100574000F2301930294039404940594214601A843
:1005840000F0D4FA12B010BD08B500F069F8FFF716
:10059400D9FFFFF797FF03E08021084800F0C9FC6A
:1005A4004FF40051064800F0B7FC0128F4D00022B3
:1005B4008021024800F0B7FCF2E700BF00040240CB
:1005C400000802407047FEE7FEE7FEE7FEE77047DB
:1005D4007047704708B500F05DF808BD82B000218F
:1005E40000910B4B5A6C42F480425A645A6C02F4E8
:1005F40080420092009A01911A6C42F080521A646F
:100604001B6C03F080530193019B02B0704700BF41
:100614000038024010B504460E4B18784FF47A7334
:10062400B3FBF0F30C4A1068B0FBF3F000F078FB76
:1006340068B90F2C01D901200AE0002221464FF0AD
:10064400FF3000F039FB054B1C60002000E0012066
:1006540010BD00BF0000002008000020040000209E
:1006640008B50B4B1A6842F400721A601A6842F417
:1006740080621A601A6842F480721A60032000F0E3
:1006840009FB0020FFF7C6FFFFF7A8FF002008BD05
:10069400003C0240034A1168034B1B780B4413606F
:1006A400704700BF2800002000000020014B18689C
:1006B400704700BF28000020002800F0D48170B5E6
:1006C40082B00446036813F0010F2ED0A54B9B683B
:1006D40003F00C03042B1FD0A24B9B6803F00C0304
:1006E400082B14D02279A04B1A706368002B40D0D9
:1006F400FFF7DCFF05469B4B1B6813F4003F14D146
:10070400FFF7D4FF401B6428F5D90320B0E1954BD3
:100714005B6813F4800FE5D0924B1B6813F4003F21
:1007240003D06368002B00F0A081236813F0020F4C
:100734004BD08C4B9B6813F00C0F2ED0894B9B68CD
:1007440003F00C03082B23D0E368002B64D0874B01
:1007540001221A60FFF7AAFF0546824B1B6813F0BB
:10076400020F4AD1FFF7A2FF401B0228F5D903204C
:100774007EE1FFF79BFF05467A4B1B6813F4003FAD
:10078400D3D0FFF793FF401B6428F5D903206FE112
:10079400744B5B6813F4800FD6D1724B1B6813F053
:1007A400020F04D0E368012B01D0012060E16D4801
:1007B400036823F0F8032169F82292FAA2F2B2FA4C
:1007C40082F201FA02F213430360236813F0080F64
:1007D40046D0636993B3664B01221A60FFF766FF44
:1007E4000546604B5B6F13F0020F39D1FFF75EFFD4
:1007F400401B0228F5D903203AE15A48036823F044
:10080400F8032169F82292FAA2F2B2FA82F201FA0A
:1008140002F213430360D8E7544B00221A60FFF737
:1008240045FF05464F4B1B6813F0020FCDD0FFF771
:100834003DFF401B0228F5D9032019E14C4B00224F
:100844001A60FFF733FF0546464B5B6F13F0020F48
:1008540006D0FFF72BFF401B0228F5D9032007E140
:10086400236813F0040F58D03E4B1B6C13F0805FC9
:100874002BD1002301933B4B1A6C42F080521A6433
:100884001B6C03F080530193019B0125394B1A68BB
:1008940042F480721A601B6813F4807F17D0227AA6
:1008A400354B1A70A36833B3FFF700FF06462D4B90
:1008B4001B6F13F0020F2FD1FFF7F8FE801B41F2DC
:1008C40088339842F3D90320D2E00025DEE7294A91
:1008D400136843F480731360FFF7E8FE0646254B64
:1008E4001B6813F4807FDAD1FFF7E0FE801B022837
:1008F400F5D90320BCE0FFF7D9FE0646194B1B6F60
:1009040013F0020F08D0FFF7D1FE801B41F28833A9
:100914009842F3D90320ABE0EDB9A369002B00F0B2
:10092400A680104A926802F00C02082A74D0022BA6
:1009340026D0124B00221A60FFF7B8FE0446094B7A
:100944001B6813F0007F65D0FFF7B0FE001B64281E
:10095400F5D903208CE0034A136C23F0805313640D
:10096400DBE700BF00380240023802400000474283
:10097400800E4742007000407038024060004742D9
:100984003E4B00221A60FFF791FE05463C4B1B6864
:1009940013F0007F06D0FFF789FE401B6428F5D9C9
:1009A400032065E0E369226A1343616A47F6C07273
:1009B40092FAA2F2B2FA82F201FA02F21343A26AA2
:1009C4005208013A4FF4403191FAA1F1B1FA81F1A0
:1009D4008A401343E16A4FF0706292FAA2F2B2FACB
:1009E40082F201FA02F21343254A5360234B012297
:1009F4001A60FFF75BFE0446214B1B6813F0007F6F
:100A040006D1FFF753FE001B6428F5D903202FE01D
:100A140000202DE000202BE0012B2BD0184B5B682D
:100A240003F48001E269914201D0012020E003F047
:100A34003F02216A8A4201D0012019E0C3F38812DF
:100A4400616A8A4201D0012012E003F44032A16AB3
:100A54008A4201D001200BE003F07063E26A934202
:100A64000AD0012004E001207047012000E00020AA
:100A740002B070BD0120FBE70020F9E760004742A7
:100A840000380240264B9B6803F00C03042B44D02F
:100A9400082B01D0234870472DE9F04B204B5A68AE
:100AA40002F03F025B6813F4800F13D01C4B5968AB
:100AB400C1F3881100231C48A1FB0001FFF780FB50
:100AC400174B5B68C3F3014301335B00B0FBF3F0E6
:100AD400BDE8F08B124B5B68C3F388131E460027F6
:100AE4005C010025E41A65EB0705A90141EA94615C
:100AF400A001001B61EB0501CB0043EA5073C40065
:100B0400A01943EB07018B0243EA90538402204669
:100B140019460023FFF754FBD2E70348704700BF90
:100B2400003802400024F40040787D01002800F0E1
:100B3400A38070B50446524B1B6803F00F038B422D
:100B440009D2CBB24E4A1370136803F00F038B42E1
:100B540001D0012070BD236813F0020F17D013F0E9
:100B6400040F04D0474A936843F4E0539360236826
:100B740013F0080F04D0434A936843F4604393602E
:100B8400404A936823F0F003A068034393600D4642
:100B9400236813F0010F31D06368012B20D0022B9E
:100BA40025D0384A126812F0020F67D035498A6896
:100BB40022F0030213438B60FFF778FD0646314BA6
:100BC4009B6803F00C036268B3EB820F16D0FFF747
:100BD4006DFD801B41F288339842F0D90320B9E7B8
:100BE400284A126812F4003FE0D10120B2E7254AF6
:100BF400126812F0007FD9D10120ABE7204B1B68AB
:100C040003F00F03AB4209D9EAB21D4B1A701B68FB
:100C140003F00F03AB4201D001209BE7236813F0DC
:100C2400040F06D0174A936823F4E053E1680B439A
:100C34009360236813F0080F07D0124A936823F4D3
:100C44006043216943EAC1039360FFF71BFF0D4B27
:100C54009B6803F0F003F02292FAA2F2B2FA82F255
:100C6400D340094AD35CD840084B1860084B186835
:100C7400FFF7D0FC00206DE701207047012069E7F1
:100C8400003C0240003802404C10000808000020DC
:100C940004000020074AD36823F4E0631B041B0C00
:100CA400000200F4E060184340F0BF6040F40030FC
:100CB400D060704700ED00E030B4174BDB68C3F33D
:100CC4000223C3F10704042C28BF04241D1D062D90
:100CD40018D9033B4FF0FF3505FA04F421EA040167
:100CE400994005FA03F322EA0303194300280BDBB6
:100CF4000901C9B200F1604000F5614080F80013B9
:100D040030BC70470023E5E700F00F000901C9B2C9
:100D1400024B1954F4E700BF00ED00E014ED00E0CD
:100D24000138B0F1807F0AD2064B5860064AF021A0
:100D340082F823100020986007221A60704701206F
:100D4400704700BF10E000E000ED00E0F0B482B0B6
:100D5400002336E0082400E00024B4403C4302357C
:100D6400694E46F82540694C2568D44304EA0506D3
:100D74004F6817F4803F01D042EA0506634D2E60A8
:100D84006D6804EA05064F6817F4003F01D042EA93
:100D940005065E4D6E60AD6804EA05064F6817F4FB
:100DA400801F01D042EA0506584DAE60ED682C4024
:100DB4004E6816F4001F01D042EA0504534AD46079
:100DC40001330A6832FA03F400F09A8001249C404B
:100DD4002240F5D04D68022D01D0122D10D1DE082D
:100DE400083650F826C003F00705AF000F25BD40B4
:100DF4002CEA050C0D69BD4045EA0C0540F8265067
:100E040006685F000325BD40ED4305EA060C4E6805
:100E140006F00306BE4046EA0C0606604E6806F17C
:100E2400FF3CBCF1010F03D9112E01D0122E10D1B9
:100E3400866805EA060CCE68BE4046EA0C06866063
:100E4400466826EA04044E68C6F300169E4026430C
:100E54004660C46825408C68BC402C43C4604C6820
:100E640014F0805FACD000240194294C656C45F4E7
:100E740080456564646C04F480440194019C9D087D
:100E8400AE1C214C54F8267003F00304A6000F2472
:100E9400B44027EA04071F4CA0423FF45DAF04F5B9
:100EA4008064A0421ED004F58064A0421CD004F5E6
:100EB4008064A0421AD004F58064A04218D004F5DE
:100EC4008064A04216D004F58064A04214D004F5D6
:100ED4008064A04212D004F58064A0423FF43AAF8B
:100EE40009243AE7012438E7022436E7032434E7E7
:100EF400042432E7052430E706242EE707242CE7F0
:100F040002B0F0BC704700BF00380140003C014013
:100F140000380240000002400369194201D1002058
:100F240070470120704712B90904816170478161DB
:100F3400704743690B4201D18161704709048161A3
:100F4400704700000C4B1A6842F001021A6000213D
:100F540099601A6822F0847222F480321A60074A77
:100F64005A601A6822F480221A60D960044B4FF048
:100F740000629A60704700BF0038024010300024BD
:100F840000ED00E0DFF834D0002103E00C4B5B58A7
:100F9400435004310B480C4B42189A42F6D30B4A87
:100FA40002E0002342F8043B094B9A42F9D3FFF7CD
:100FB400C9FF00F011F8FFF7E7FA704700000220BC
:100FC4006C100008000000200C0000200C00002021
:100FD4002C000020FEE7000070B500250C4E0D4CDF
:100FE400A41BA410A54209D100F022F800250A4E42
:100FF4000A4CA41BA410A54205D170BD56F8253097
:1010040098470135EEE756F8253098470135F2E761
:1010140064100008641000086410000868100008D8
:1010240003460244934200D1704703F8011BF9E7D9
:10103400F8B500BFF8BC08BC9E467047F8B500BFC1
:08104400F8BC08BC9E46704791
:10104C00000000000000000001020304060708096C
:08105C0098F1FF7F0100000084
:04106400A9010008D6
:0410680085010008F6
:0C106C0001000000100000000024F4004F
:0400000508000F8957
:00000001FF
